ARM GAS  /var/folders/m5/1z2v3_dd2cg5xnclvhns6x640000gn/T//ccmdrY90.s 			page 1


   1              		.syntax unified
   2              		.cpu cortex-m4
   3              		.eabi_attribute 27, 3
   4              		.eabi_attribute 28, 1
   5              		.fpu fpv4-sp-d16
   6              		.eabi_attribute 20, 1
   7              		.eabi_attribute 21, 1
   8              		.eabi_attribute 23, 3
   9              		.eabi_attribute 24, 1
  10              		.eabi_attribute 25, 1
  11              		.eabi_attribute 26, 1
  12              		.eabi_attribute 30, 1
  13              		.eabi_attribute 34, 1
  14              		.eabi_attribute 18, 4
  15              		.thumb
  16              		.file	"myADC.c"
  17              		.text
  18              	.Ltext0:
  19              		.cfi_sections	.debug_frame
  20              		.section	.text.myADC_ConfigChannel,"ax",%progbits
  21              		.align	2
  22              		.global	myADC_ConfigChannel
  23              		.thumb
  24              		.thumb_func
  26              	myADC_ConfigChannel:
  27              	.LFB123:
  28              		.file 1 "Src/myADC.c"
   1:Src/myADC.c   **** /*
   2:Src/myADC.c   ****  * myADC.c
   3:Src/myADC.c   ****  *
   4:Src/myADC.c   ****  *  Created on: 2017/03/07
   5:Src/myADC.c   ****  *      Author: tattaka
   6:Src/myADC.c   ****  */
   7:Src/myADC.c   **** 
   8:Src/myADC.c   **** #include "adc.h"
   9:Src/myADC.c   **** #include "myADC.h"
  10:Src/myADC.c   **** 
  11:Src/myADC.c   **** HAL_StatusTypeDef myADC_ConfigChannel(ADC_HandleTypeDef *hadc, uint32_t channel)
  12:Src/myADC.c   **** {
  29              		.loc 1 12 0
  30              		.cfi_startproc
  31              		@ args = 0, pretend = 0, frame = 16
  32              		@ frame_needed = 0, uses_anonymous_args = 0
  33              	.LVL0:
  34 0000 00B5     		push	{lr}
  35              	.LCFI0:
  36              		.cfi_def_cfa_offset 4
  37              		.cfi_offset 14, -4
  38 0002 85B0     		sub	sp, sp, #20
  39              	.LCFI1:
  40              		.cfi_def_cfa_offset 24
  13:Src/myADC.c   ****     ADC_ChannelConfTypeDef sConfig;
  14:Src/myADC.c   **** 
  15:Src/myADC.c   ****     sConfig.Channel = channel;
  41              		.loc 1 15 0
  42 0004 0091     		str	r1, [sp]
  16:Src/myADC.c   ****     sConfig.Rank = 1;
ARM GAS  /var/folders/m5/1z2v3_dd2cg5xnclvhns6x640000gn/T//ccmdrY90.s 			page 2


  43              		.loc 1 16 0
  44 0006 0123     		movs	r3, #1
  45 0008 0193     		str	r3, [sp, #4]
  17:Src/myADC.c   ****     sConfig.SamplingTime = ADC_SAMPLETIME_3CYCLES;
  46              		.loc 1 17 0
  47 000a 0023     		movs	r3, #0
  48 000c 0293     		str	r3, [sp, #8]
  18:Src/myADC.c   ****     return HAL_ADC_ConfigChannel(hadc, &sConfig);
  49              		.loc 1 18 0
  50 000e 6946     		mov	r1, sp
  51              	.LVL1:
  52 0010 FFF7FEFF 		bl	HAL_ADC_ConfigChannel
  53              	.LVL2:
  19:Src/myADC.c   **** }
  54              		.loc 1 19 0
  55 0014 05B0     		add	sp, sp, #20
  56              		@ sp needed
  57 0016 5DF804FB 		ldr	pc, [sp], #4
  58              		.cfi_endproc
  59              	.LFE123:
  61 001a 00BF     		.text
  62              	.Letext0:
  63              		.file 2 "/Users/tattaka/gcc-arm-none-eabi-4_8-2013q4/arm-none-eabi/include/stdint.h"
  64              		.file 3 "Drivers/CMSIS/Device/ST/STM32F4xx/Include/stm32f405xx.h"
  65              		.file 4 "Drivers/STM32F4xx_HAL_Driver/Inc/stm32f4xx_hal_def.h"
  66              		.file 5 "Drivers/STM32F4xx_HAL_Driver/Inc/stm32f4xx_hal_dma.h"
  67              		.file 6 "Drivers/STM32F4xx_HAL_Driver/Inc/stm32f4xx_hal_adc.h"
  68              		.file 7 "Drivers/CMSIS/Include/core_cm4.h"
ARM GAS  /var/folders/m5/1z2v3_dd2cg5xnclvhns6x640000gn/T//ccmdrY90.s 			page 3


DEFINED SYMBOLS
                            *ABS*:0000000000000000 myADC.c
/var/folders/m5/1z2v3_dd2cg5xnclvhns6x640000gn/T//ccmdrY90.s:21     .text.myADC_ConfigChannel:0000000000000000 $t
/var/folders/m5/1z2v3_dd2cg5xnclvhns6x640000gn/T//ccmdrY90.s:26     .text.myADC_ConfigChannel:0000000000000000 myADC_ConfigChannel
                     .debug_frame:0000000000000010 $d

UNDEFINED SYMBOLS
HAL_ADC_ConfigChannel
